{
  "contractName": "Arithmetic",
  "abi": [
    {
      "constant": true,
      "inputs": [],
      "name": "storedValue",
      "outputs": [
        {
          "name": "",
          "type": "uint256"
        }
      ],
      "payable": false,
      "stateMutability": "view",
      "type": "function"
    },
    {
      "inputs": [],
      "payable": false,
      "stateMutability": "nonpayable",
      "type": "constructor"
    },
    {
      "constant": false,
      "inputs": [
        {
          "name": "number",
          "type": "uint256"
        }
      ],
      "name": "add",
      "outputs": [],
      "payable": false,
      "stateMutability": "nonpayable",
      "type": "function"
    },
    {
      "constant": false,
      "inputs": [
        {
          "name": "number",
          "type": "uint256"
        }
      ],
      "name": "subtract",
      "outputs": [],
      "payable": false,
      "stateMutability": "nonpayable",
      "type": "function"
    },
    {
      "constant": false,
      "inputs": [
        {
          "name": "number",
          "type": "uint256"
        }
      ],
      "name": "divide",
      "outputs": [],
      "payable": false,
      "stateMutability": "nonpayable",
      "type": "function"
    },
    {
      "constant": false,
      "inputs": [
        {
          "name": "number",
          "type": "uint256"
        }
      ],
      "name": "multiply",
      "outputs": [],
      "payable": false,
      "stateMutability": "nonpayable",
      "type": "function"
    },
    {
      "constant": false,
      "inputs": [
        {
          "name": "no1",
          "type": "uint256"
        },
        {
          "name": "no2",
          "type": "uint256"
        }
      ],
      "name": "AddNumbers",
      "outputs": [],
      "payable": false,
      "stateMutability": "nonpayable",
      "type": "function"
    }
  ],
  "bytecode": "0x608060405234801561001057600080fd5b506064600081905550610213806100286000396000f300608060405260043610610078576000357c0100000000000000000000000000000000000000000000000000000000900463ffffffff1680631003e2d21461007d5780631dc05f17146100aa5780633e823f79146100d75780636814b6d9146101045780636d619daa1461013b578063c6888fa114610166575b600080fd5b34801561008957600080fd5b506100a860048036038101908080359060200190929190505050610193565b005b3480156100b657600080fd5b506100d5600480360381019080803590602001909291905050506101a1565b005b3480156100e357600080fd5b50610102600480360381019080803590602001909291905050506101af565b005b34801561011057600080fd5b5061013960048036038101908080359060200190929190803590602001909291905050506101c6565b005b34801561014757600080fd5b506101506101d3565b6040518082815260200191505060405180910390f35b34801561017257600080fd5b50610191600480360381019080803590602001909291905050506101d9565b005b806000540160008190555050565b806000540360008190555050565b806000548115156101bc57fe5b0460008190555050565b8082016000819055505050565b60005481565b8060005402600081905550505600a165627a7a72305820e66f6a22cbb3357afa2083da14e3f373a39872dd4e803f7d7747526312d4faae0029",
  "source": "pragma solidity ^0.4.24;\n\ncontract Arithmetic{\n\n    uint256 public storedValue;\n    constructor() public{\n        storedValue = 100;\n\n    }\n\n    function add(uint256 number) public {\n        storedValue = storedValue + number;\n\n    }\n\n    function subtract(uint256 number) public{\n        storedValue = storedValue - number;\n    }\n\n    function divide(uint256 number) public {\n        storedValue = storedValue / number;\n    }\n\n    function multiply(uint256 number) public{\n        storedValue = storedValue * number;\n    }\n\n    function AddNumbers(uint256 no1, uint256 no2) public{\n        storedValue = no1 + no2;\n    }\n\n}",
  "sourcePath": "/home/ubuntu/Downloads/Arithmetic/contracts/Arithmetic.sol",
  "compiler": {
    "name": "solc",
    "version": "0.4.24+commit.e67f0147.Emscripten.clang"
  },
  "schemaVersion": "2.0.1",
  "updatedAt": "2018-07-31T09:08:41.570Z"
}